{
  "_format": "hh-sol-artifact-1",
  "contractName": "Revolver",
  "sourceName": "contracts/Revolver.sol",
  "abi": [
    {
      "inputs": [
        {
          "internalType": "uint256",
          "name": "subscriptionId",
          "type": "uint256"
        },
        {
          "internalType": "address",
          "name": "vrfCoordinator",
          "type": "address"
        },
        {
          "internalType": "bytes32",
          "name": "keyHash",
          "type": "bytes32"
        },
        {
          "internalType": "address",
          "name": "_link",
          "type": "address"
        }
      ],
      "stateMutability": "nonpayable",
      "type": "constructor"
    },
    {
      "inputs": [
        {
          "internalType": "address",
          "name": "have",
          "type": "address"
        },
        {
          "internalType": "address",
          "name": "want",
          "type": "address"
        }
      ],
      "name": "OnlyCoordinatorCanFulfill",
      "type": "error"
    },
    {
      "inputs": [
        {
          "internalType": "address",
          "name": "have",
          "type": "address"
        },
        {
          "internalType": "address",
          "name": "owner",
          "type": "address"
        },
        {
          "internalType": "address",
          "name": "coordinator",
          "type": "address"
        }
      ],
      "name": "OnlyOwnerOrCoordinator",
      "type": "error"
    },
    {
      "inputs": [],
      "name": "ZeroAddress",
      "type": "error"
    },
    {
      "anonymous": false,
      "inputs": [
        {
          "indexed": false,
          "internalType": "address",
          "name": "vrfCoordinator",
          "type": "address"
        }
      ],
      "name": "CoordinatorSet",
      "type": "event"
    },
    {
      "anonymous": false,
      "inputs": [
        {
          "indexed": true,
          "internalType": "address",
          "name": "from",
          "type": "address"
        },
        {
          "indexed": false,
          "internalType": "uint256",
          "name": "amount",
          "type": "uint256"
        },
        {
          "indexed": true,
          "internalType": "bytes32",
          "name": "sessionId",
          "type": "bytes32"
        }
      ],
      "name": "Deposit",
      "type": "event"
    },
    {
      "anonymous": false,
      "inputs": [
        {
          "indexed": true,
          "internalType": "address",
          "name": "player1",
          "type": "address"
        },
        {
          "indexed": true,
          "internalType": "bytes32",
          "name": "sessionId",
          "type": "bytes32"
        }
      ],
      "name": "GameCreated",
      "type": "event"
    },
    {
      "anonymous": false,
      "inputs": [
        {
          "indexed": true,
          "internalType": "bytes32",
          "name": "sessionId",
          "type": "bytes32"
        }
      ],
      "name": "GameJoined",
      "type": "event"
    },
    {
      "anonymous": false,
      "inputs": [
        {
          "indexed": true,
          "internalType": "address",
          "name": "from",
          "type": "address"
        },
        {
          "indexed": true,
          "internalType": "address",
          "name": "to",
          "type": "address"
        }
      ],
      "name": "OwnershipTransferRequested",
      "type": "event"
    },
    {
      "anonymous": false,
      "inputs": [
        {
          "indexed": true,
          "internalType": "address",
          "name": "from",
          "type": "address"
        },
        {
          "indexed": true,
          "internalType": "address",
          "name": "to",
          "type": "address"
        }
      ],
      "name": "OwnershipTransferred",
      "type": "event"
    },
    {
      "anonymous": false,
      "inputs": [
        {
          "indexed": true,
          "internalType": "uint256",
          "name": "requestId",
          "type": "uint256"
        },
        {
          "indexed": false,
          "internalType": "uint256[]",
          "name": "randomWords",
          "type": "uint256[]"
        }
      ],
      "name": "RequestFulfilled",
      "type": "event"
    },
    {
      "anonymous": false,
      "inputs": [
        {
          "indexed": false,
          "internalType": "address",
          "name": "sender",
          "type": "address"
        },
        {
          "indexed": true,
          "internalType": "uint256",
          "name": "requestId",
          "type": "uint256"
        }
      ],
      "name": "RequestSent",
      "type": "event"
    },
    {
      "anonymous": false,
      "inputs": [
        {
          "indexed": true,
          "internalType": "bytes32",
          "name": "sessionId",
          "type": "bytes32"
        },
        {
          "indexed": true,
          "internalType": "address",
          "name": "player",
          "type": "address"
        },
        {
          "indexed": true,
          "internalType": "uint256",
          "name": "randomNumber",
          "type": "uint256"
        }
      ],
      "name": "RevolverFired",
      "type": "event"
    },
    {
      "anonymous": false,
      "inputs": [
        {
          "indexed": true,
          "internalType": "bytes32",
          "name": "sessionId",
          "type": "bytes32"
        },
        {
          "indexed": false,
          "internalType": "address",
          "name": "player",
          "type": "address"
        }
      ],
      "name": "SpinCylinder",
      "type": "event"
    },
    {
      "anonymous": false,
      "inputs": [
        {
          "indexed": true,
          "internalType": "address",
          "name": "to",
          "type": "address"
        },
        {
          "indexed": false,
          "internalType": "uint256",
          "name": "amount",
          "type": "uint256"
        },
        {
          "indexed": true,
          "internalType": "bytes32",
          "name": "sessionId",
          "type": "bytes32"
        }
      ],
      "name": "Withdrawal",
      "type": "event"
    },
    {
      "inputs": [
        {
          "internalType": "bytes32",
          "name": "sessionId",
          "type": "bytes32"
        }
      ],
      "name": "abortGame",
      "outputs": [],
      "stateMutability": "nonpayable",
      "type": "function"
    },
    {
      "inputs": [],
      "name": "acceptOwnership",
      "outputs": [],
      "stateMutability": "nonpayable",
      "type": "function"
    },
    {
      "inputs": [
        {
          "internalType": "uint256",
          "name": "wager",
          "type": "uint256"
        },
        {
          "internalType": "uint256",
          "name": "turnTimer",
          "type": "uint256"
        }
      ],
      "name": "createGame",
      "outputs": [
        {
          "internalType": "bytes32",
          "name": "sessionId",
          "type": "bytes32"
        }
      ],
      "stateMutability": "nonpayable",
      "type": "function"
    },
    {
      "inputs": [
        {
          "internalType": "bytes32",
          "name": "sessionId",
          "type": "bytes32"
        }
      ],
      "name": "fireRevolver",
      "outputs": [],
      "stateMutability": "nonpayable",
      "type": "function"
    },
    {
      "inputs": [
        {
          "internalType": "bytes32",
          "name": "",
          "type": "bytes32"
        }
      ],
      "name": "gameSessions",
      "outputs": [
        {
          "internalType": "bytes32",
          "name": "sessionId",
          "type": "bytes32"
        },
        {
          "internalType": "address",
          "name": "player1",
          "type": "address"
        },
        {
          "internalType": "address",
          "name": "player2",
          "type": "address"
        },
        {
          "internalType": "address",
          "name": "winner",
          "type": "address"
        },
        {
          "internalType": "address",
          "name": "turn",
          "type": "address"
        },
        {
          "internalType": "uint256",
          "name": "roundCount",
          "type": "uint256"
        },
        {
          "internalType": "address",
          "name": "lastSpinner",
          "type": "address"
        },
        {
          "internalType": "uint256",
          "name": "wager",
          "type": "uint256"
        },
        {
          "internalType": "uint256",
          "name": "pot",
          "type": "uint256"
        },
        {
          "internalType": "uint256",
          "name": "timestamp",
          "type": "uint256"
        },
        {
          "internalType": "uint256",
          "name": "turnTimer",
          "type": "uint256"
        }
      ],
      "stateMutability": "view",
      "type": "function"
    },
    {
      "inputs": [
        {
          "internalType": "bytes32",
          "name": "sessionId",
          "type": "bytes32"
        }
      ],
      "name": "joinGame",
      "outputs": [],
      "stateMutability": "nonpayable",
      "type": "function"
    },
    {
      "inputs": [
        {
          "internalType": "bytes32",
          "name": "",
          "type": "bytes32"
        },
        {
          "internalType": "address",
          "name": "",
          "type": "address"
        }
      ],
      "name": "lastRequestIds",
      "outputs": [
        {
          "internalType": "uint256",
          "name": "",
          "type": "uint256"
        }
      ],
      "stateMutability": "view",
      "type": "function"
    },
    {
      "inputs": [],
      "name": "owner",
      "outputs": [
        {
          "internalType": "address",
          "name": "",
          "type": "address"
        }
      ],
      "stateMutability": "view",
      "type": "function"
    },
    {
      "inputs": [
        {
          "internalType": "uint256",
          "name": "requestId",
          "type": "uint256"
        },
        {
          "internalType": "uint256[]",
          "name": "randomWords",
          "type": "uint256[]"
        }
      ],
      "name": "rawFulfillRandomWords",
      "outputs": [],
      "stateMutability": "nonpayable",
      "type": "function"
    },
    {
      "inputs": [],
      "name": "requestRandomWords",
      "outputs": [
        {
          "internalType": "uint256",
          "name": "requestId",
          "type": "uint256"
        }
      ],
      "stateMutability": "nonpayable",
      "type": "function"
    },
    {
      "inputs": [
        {
          "internalType": "uint256",
          "name": "",
          "type": "uint256"
        }
      ],
      "name": "s_randomWords",
      "outputs": [
        {
          "internalType": "uint256",
          "name": "",
          "type": "uint256"
        }
      ],
      "stateMutability": "view",
      "type": "function"
    },
    {
      "inputs": [],
      "name": "s_requestId",
      "outputs": [
        {
          "internalType": "uint256",
          "name": "",
          "type": "uint256"
        }
      ],
      "stateMutability": "view",
      "type": "function"
    },
    {
      "inputs": [
        {
          "internalType": "uint256",
          "name": "",
          "type": "uint256"
        }
      ],
      "name": "s_requests",
      "outputs": [
        {
          "internalType": "bool",
          "name": "fulfilled",
          "type": "bool"
        },
        {
          "internalType": "bool",
          "name": "exists",
          "type": "bool"
        }
      ],
      "stateMutability": "view",
      "type": "function"
    },
    {
      "inputs": [],
      "name": "s_vrfCoordinator",
      "outputs": [
        {
          "internalType": "contract IVRFCoordinatorV2Plus",
          "name": "",
          "type": "address"
        }
      ],
      "stateMutability": "view",
      "type": "function"
    },
    {
      "inputs": [
        {
          "internalType": "uint256",
          "name": "",
          "type": "uint256"
        }
      ],
      "name": "sessionIds",
      "outputs": [
        {
          "internalType": "bytes32",
          "name": "",
          "type": "bytes32"
        }
      ],
      "stateMutability": "view",
      "type": "function"
    },
    {
      "inputs": [
        {
          "internalType": "address",
          "name": "_vrfCoordinator",
          "type": "address"
        }
      ],
      "name": "setCoordinator",
      "outputs": [],
      "stateMutability": "nonpayable",
      "type": "function"
    },
    {
      "inputs": [
        {
          "internalType": "bytes32",
          "name": "sessionId",
          "type": "bytes32"
        },
        {
          "internalType": "uint256",
          "name": "value",
          "type": "uint256"
        }
      ],
      "name": "setWager",
      "outputs": [],
      "stateMutability": "nonpayable",
      "type": "function"
    },
    {
      "inputs": [
        {
          "internalType": "bytes32",
          "name": "sessionId",
          "type": "bytes32"
        }
      ],
      "name": "spinCylinder",
      "outputs": [
        {
          "internalType": "uint256",
          "name": "requestId",
          "type": "uint256"
        }
      ],
      "stateMutability": "nonpayable",
      "type": "function"
    },
    {
      "inputs": [
        {
          "internalType": "address",
          "name": "to",
          "type": "address"
        }
      ],
      "name": "transferOwnership",
      "outputs": [],
      "stateMutability": "nonpayable",
      "type": "function"
    },
    {
      "inputs": [
        {
          "internalType": "bytes32",
          "name": "",
          "type": "bytes32"
        },
        {
          "internalType": "address",
          "name": "",
          "type": "address"
        }
      ],
      "name": "wagers",
      "outputs": [
        {
          "internalType": "uint256",
          "name": "",
          "type": "uint256"
        }
      ],
      "stateMutability": "view",
      "type": "function"
    },
    {
      "inputs": [
        {
          "internalType": "bytes32",
          "name": "sessionId",
          "type": "bytes32"
        }
      ],
      "name": "withdrawPot",
      "outputs": [],
      "stateMutability": "nonpayable",
      "type": "function"
    },
    {
      "inputs": [
        {
          "internalType": "bytes32",
          "name": "sessionId",
          "type": "bytes32"
        }
      ],
      "name": "withdrawWager",
      "outputs": [],
      "stateMutability": "nonpayable",
      "type": "function"
    }
  ],
  "bytecode": "0x60e06040523480156200001157600080fd5b5060405162004ff338038062004ff38339818101604052810190620000379190620004bf565b82338060008073ffffffffffffffffffffffffffffffffffffffff168273ffffffffffffffffffffffffffffffffffffffff1603620000ad576040517f08c379a0000000000000000000000000000000000000000000000000000000008152600401620000a49062000592565b60405180910390fd5b816000806101000a81548173ffffffffffffffffffffffffffffffffffffffff021916908373ffffffffffffffffffffffffffffffffffffffff160217905550600073ffffffffffffffffffffffffffffffffffffffff168173ffffffffffffffffffffffffffffffffffffffff161462000134576200013381620002b060201b60201c565b5b505050600073ffffffffffffffffffffffffffffffffffffffff168173ffffffffffffffffffffffffffffffffffffffff16036200019e576040517fd92e233d00000000000000000000000000000000000000000000000000000000815260040160405180910390fd5b80600260006101000a81548173ffffffffffffffffffffffffffffffffffffffff021916908373ffffffffffffffffffffffffffffffffffffffff160217905550508273ffffffffffffffffffffffffffffffffffffffff1660808173ffffffffffffffffffffffffffffffffffffffff16815250508160c0818152505033600660006101000a81548173ffffffffffffffffffffffffffffffffffffffff021916908373ffffffffffffffffffffffffffffffffffffffff1602179055508360a0818152505080600360006101000a81548173ffffffffffffffffffffffffffffffffffffffff021916908373ffffffffffffffffffffffffffffffffffffffff1602179055505050505062000626565b3373ffffffffffffffffffffffffffffffffffffffff168173ffffffffffffffffffffffffffffffffffffffff160362000321576040517f08c379a0000000000000000000000000000000000000000000000000000000008152600401620003189062000604565b60405180910390fd5b80600160006101000a81548173ffffffffffffffffffffffffffffffffffffffff021916908373ffffffffffffffffffffffffffffffffffffffff1602179055508073ffffffffffffffffffffffffffffffffffffffff1660008054906101000a900473ffffffffffffffffffffffffffffffffffffffff1673ffffffffffffffffffffffffffffffffffffffff167fed8889f560326eb138920d842192f0eb3dd22b4f139c87a2c57538e05bae127860405160405180910390a350565b600080fd5b6000819050919050565b620003f981620003e4565b81146200040557600080fd5b50565b6000815190506200041981620003ee565b92915050565b600073ffffffffffffffffffffffffffffffffffffffff82169050919050565b60006200044c826200041f565b9050919050565b6200045e816200043f565b81146200046a57600080fd5b50565b6000815190506200047e8162000453565b92915050565b6000819050919050565b620004998162000484565b8114620004a557600080fd5b50565b600081519050620004b9816200048e565b92915050565b60008060008060808587031215620004dc57620004db620003df565b5b6000620004ec8782880162000408565b9450506020620004ff878288016200046d565b93505060406200051287828801620004a8565b925050606062000525878288016200046d565b91505092959194509250565b600082825260208201905092915050565b7f43616e6e6f7420736574206f776e657220746f207a65726f0000000000000000600082015250565b60006200057a60188362000531565b9150620005878262000542565b602082019050919050565b60006020820190508181036000830152620005ad816200056b565b9050919050565b7f43616e6e6f74207472616e7366657220746f2073656c66000000000000000000600082015250565b6000620005ec60178362000531565b9150620005f982620005b4565b602082019050919050565b600060208201905081810360008301526200061f81620005dd565b9050919050565b60805160a05160c05161499d62000656600039600061250001526000612526015260006124b9015261499d6000f3fe608060405234801561001057600080fd5b50600436106101425760003560e01c8063aa6131bb116100b8578063e89e106a1161007c578063e89e106a1461036a578063e977efde14610388578063f2fde38b146103a4578063f6eaffc8146103c0578063f934123a146103f0578063fbb122661461042057610142565b8063aa6131bb146102dc578063bf474766146102f8578063d1e892c214610314578063d3d86d7614610330578063e0c862891461034c57610142565b80637e2821771161010a5780637e282177146101e95780638da5cb5b146102195780638ea9811714610237578063918cba7b146102535780639eccacf61461028d578063a168fa89146102ab57610142565b80631fe543e3146101475780634bbb8b121461016357806360104cef146101935780637610db83146101c357806379ba5097146101df575b600080fd5b610161600480360381019061015c91906135ff565b610450565b005b61017d600480360381019061017891906136f3565b610516565b60405161018a9190613742565b60405180910390f35b6101ad60048036038101906101a8919061375d565b61053b565b6040516101ba91906137ac565b60405180910390f35b6101dd60048036038101906101d891906137c7565b610867565b005b6101e7610f55565b005b61020360048036038101906101fe91906137f4565b6110ea565b60405161021091906137ac565b60405180910390f35b61022161110e565b60405161022e9190613830565b60405180910390f35b610251600480360381019061024c919061384b565b611137565b005b61026d600480360381019061026891906137c7565b611318565b6040516102849b9a99989796959493929190613878565b60405180910390f35b610295611412565b6040516102a29190613982565b60405180910390f35b6102c560048036038101906102c091906137f4565b611438565b6040516102d39291906139b8565b60405180910390f35b6102f660048036038101906102f191906137c7565b611476565b005b610312600480360381019061030d91906137c7565b611896565b005b61032e600480360381019061032991906139e1565b611bb8565b005b61034a600480360381019061034591906137c7565b6120ad565b005b6103546124b5565b6040516103619190613742565b60405180910390f35b6103726126cf565b60405161037f9190613742565b60405180910390f35b6103a2600480360381019061039d91906137c7565b6126d5565b005b6103be60048036038101906103b9919061384b565b612b19565b005b6103da60048036038101906103d591906137f4565b612b2d565b6040516103e79190613742565b60405180910390f35b61040a600480360381019061040591906137c7565b612b51565b6040516104179190613742565b60405180910390f35b61043a600480360381019061043591906136f3565b613196565b6040516104479190613742565b60405180910390f35b600260009054906101000a900473ffffffffffffffffffffffffffffffffffffffff1673ffffffffffffffffffffffffffffffffffffffff163373ffffffffffffffffffffffffffffffffffffffff16146105065733600260009054906101000a900473ffffffffffffffffffffffffffffffffffffffff166040517f1cf993f40000000000000000000000000000000000000000000000000000000081526004016104fd929190613a21565b60405180910390fd5b6105118383836131bb565b505050565b600a602052816000526040600020602052806000526040600020600091509150505481565b60004233604051602001610550929190613ab3565b60405160208183030381529060405280519060200120905060098190806001815401808255809150506001900390600052602060002001600090919091909150556040518061016001604052808281526020013373ffffffffffffffffffffffffffffffffffffffff168152602001600073ffffffffffffffffffffffffffffffffffffffff168152602001600073ffffffffffffffffffffffffffffffffffffffff1681526020013373ffffffffffffffffffffffffffffffffffffffff16815260200160018152602001600073ffffffffffffffffffffffffffffffffffffffff168152602001848152602001600081526020016000815260200183815250600860008381526020019081526020016000206000820151816000015560208201518160010160006101000a81548173ffffffffffffffffffffffffffffffffffffffff021916908373ffffffffffffffffffffffffffffffffffffffff16021790555060408201518160020160006101000a81548173ffffffffffffffffffffffffffffffffffffffff021916908373ffffffffffffffffffffffffffffffffffffffff16021790555060608201518160030160006101000a81548173ffffffffffffffffffffffffffffffffffffffff021916908373ffffffffffffffffffffffffffffffffffffffff16021790555060808201518160040160006101000a81548173ffffffffffffffffffffffffffffffffffffffff021916908373ffffffffffffffffffffffffffffffffffffffff16021790555060a0820151816005015560c08201518160060160006101000a81548173ffffffffffffffffffffffffffffffffffffffff021916908373ffffffffffffffffffffffffffffffffffffffff16021790555060e082015181600701556101008201518160080155610120820151816009015561014082015181600a0155905050600083111561081d5761081c8184611bb8565b5b803373ffffffffffffffffffffffffffffffffffffffff167f6f5adfd29acb7a52615e8b7438a8f979ab75df487b483139d2b3b5ce81c64fd660405160405180910390a392915050565b60006008600083815260200190815260200160002060405180610160016040529081600082015481526020016001820160009054906101000a900473ffffffffffffffffffffffffffffffffffffffff1673ffffffffffffffffffffffffffffffffffffffff1673ffffffffffffffffffffffffffffffffffffffff1681526020016002820160009054906101000a900473ffffffffffffffffffffffffffffffffffffffff1673ffffffffffffffffffffffffffffffffffffffff1673ffffffffffffffffffffffffffffffffffffffff1681526020016003820160009054906101000a900473ffffffffffffffffffffffffffffffffffffffff1673ffffffffffffffffffffffffffffffffffffffff1673ffffffffffffffffffffffffffffffffffffffff1681526020016004820160009054906101000a900473ffffffffffffffffffffffffffffffffffffffff1673ffffffffffffffffffffffffffffffffffffffff1673ffffffffffffffffffffffffffffffffffffffff168152602001600582015481526020016006820160009054906101000a900473ffffffffffffffffffffffffffffffffffffffff1673ffffffffffffffffffffffffffffffffffffffff1673ffffffffffffffffffffffffffffffffffffffff168152602001600782015481526020016008820154815260200160098201548152602001600a8201548152505090506000600b600084815260200190815260200160002060003373ffffffffffffffffffffffffffffffffffffffff1673ffffffffffffffffffffffffffffffffffffffff1681526020019081526020016000205490506000600760008381526020019081526020016000206040518060600160405290816000820160009054906101000a900460ff161515151581526020016000820160019054906101000a900460ff1615151515815260200160018201805480602002602001604051908101604052809291908181526020018280548015610b6e57602002820191906000526020600020905b815481526020019060010190808311610b5a575b50505050508152505090503373ffffffffffffffffffffffffffffffffffffffff168360c0015173ffffffffffffffffffffffffffffffffffffffff1614610beb576040517f08c379a0000000000000000000000000000000000000000000000000000000008152600401610be290613b3c565b60405180910390fd5b600073ffffffffffffffffffffffffffffffffffffffff16836060015173ffffffffffffffffffffffffffffffffffffffff1614610c5e576040517f08c379a0000000000000000000000000000000000000000000000000000000008152600401610c5590613ba8565b60405180910390fd5b8060000151610ca2576040517f08c379a0000000000000000000000000000000000000000000000000000000008152600401610c9990613c14565b60405180910390fd5b600060068260400151600081518110610cbe57610cbd613c34565b5b6020026020010151610cd09190613c92565b9050803373ffffffffffffffffffffffffffffffffffffffff16867f8b5c2d633db9684dde436d46af9c85ced708824486514945c11147fb3d2b861d60405160405180910390a460038103610e1757836020015173ffffffffffffffffffffffffffffffffffffffff163373ffffffffffffffffffffffffffffffffffffffff1603610db45783604001516008600087815260200190815260200160002060030160006101000a81548173ffffffffffffffffffffffffffffffffffffffff021916908373ffffffffffffffffffffffffffffffffffffffff160217905550610e0e565b83602001516008600087815260200190815260200160002060030160006101000a81548173ffffffffffffffffffffffffffffffffffffffff021916908373ffffffffffffffffffffffffffffffffffffffff1602179055505b50505050610f52565b836020015173ffffffffffffffffffffffffffffffffffffffff163373ffffffffffffffffffffffffffffffffffffffff1603610eac5783604001516008600087815260200190815260200160002060040160006101000a81548173ffffffffffffffffffffffffffffffffffffffff021916908373ffffffffffffffffffffffffffffffffffffffff160217905550610f06565b83602001516008600087815260200190815260200160002060040160006101000a81548173ffffffffffffffffffffffffffffffffffffffff021916908373ffffffffffffffffffffffffffffffffffffffff1602179055505b600860008681526020019081526020016000206005016000815480929190610f2d90613cf2565b9190505550426008600087815260200190815260200160002060090181905550505050505b50565b600160009054906101000a900473ffffffffffffffffffffffffffffffffffffffff1673ffffffffffffffffffffffffffffffffffffffff163373ffffffffffffffffffffffffffffffffffffffff1614610fe5576040517f08c379a0000000000000000000000000000000000000000000000000000000008152600401610fdc90613d86565b60405180910390fd5b60008060009054906101000a900473ffffffffffffffffffffffffffffffffffffffff169050336000806101000a81548173ffffffffffffffffffffffffffffffffffffffff021916908373ffffffffffffffffffffffffffffffffffffffff1602179055506000600160006101000a81548173ffffffffffffffffffffffffffffffffffffffff021916908373ffffffffffffffffffffffffffffffffffffffff1602179055503373ffffffffffffffffffffffffffffffffffffffff168173ffffffffffffffffffffffffffffffffffffffff167f8be0079c531659141344cd1fd0a4f28419497f9722a3daafe3b4186f6b6457e060405160405180910390a350565b600981815481106110fa57600080fd5b906000526020600020016000915090505481565b60008060009054906101000a900473ffffffffffffffffffffffffffffffffffffffff16905090565b61113f61110e565b73ffffffffffffffffffffffffffffffffffffffff163373ffffffffffffffffffffffffffffffffffffffff16141580156111c85750600260009054906101000a900473ffffffffffffffffffffffffffffffffffffffff1673ffffffffffffffffffffffffffffffffffffffff163373ffffffffffffffffffffffffffffffffffffffff1614155b1561123757336111d661110e565b600260009054906101000a900473ffffffffffffffffffffffffffffffffffffffff166040517f061db9c100000000000000000000000000000000000000000000000000000000815260040161122e93929190613da6565b60405180910390fd5b600073ffffffffffffffffffffffffffffffffffffffff168173ffffffffffffffffffffffffffffffffffffffff160361129d576040517fd92e233d00000000000000000000000000000000000000000000000000000000815260040160405180910390fd5b80600260006101000a81548173ffffffffffffffffffffffffffffffffffffffff021916908373ffffffffffffffffffffffffffffffffffffffff1602179055507fd1a6a14209a385a964d036e404cb5cfb71f4000cdb03c9366292430787261be68160405161130d9190613830565b60405180910390a150565b60086020528060005260406000206000915090508060000154908060010160009054906101000a900473ffffffffffffffffffffffffffffffffffffffff16908060020160009054906101000a900473ffffffffffffffffffffffffffffffffffffffff16908060030160009054906101000a900473ffffffffffffffffffffffffffffffffffffffff16908060040160009054906101000a900473ffffffffffffffffffffffffffffffffffffffff16908060050154908060060160009054906101000a900473ffffffffffffffffffffffffffffffffffffffff169080600701549080600801549080600901549080600a015490508b565b600260009054906101000a900473ffffffffffffffffffffffffffffffffffffffff1681565b60076020528060005260406000206000915090508060000160009054906101000a900460ff16908060000160019054906101000a900460ff16905082565b60006008600083815260200190815260200160002060405180610160016040529081600082015481526020016001820160009054906101000a900473ffffffffffffffffffffffffffffffffffffffff1673ffffffffffffffffffffffffffffffffffffffff1673ffffffffffffffffffffffffffffffffffffffff1681526020016002820160009054906101000a900473ffffffffffffffffffffffffffffffffffffffff1673ffffffffffffffffffffffffffffffffffffffff1673ffffffffffffffffffffffffffffffffffffffff1681526020016003820160009054906101000a900473ffffffffffffffffffffffffffffffffffffffff1673ffffffffffffffffffffffffffffffffffffffff1673ffffffffffffffffffffffffffffffffffffffff1681526020016004820160009054906101000a900473ffffffffffffffffffffffffffffffffffffffff1673ffffffffffffffffffffffffffffffffffffffff1673ffffffffffffffffffffffffffffffffffffffff168152602001600582015481526020016006820160009054906101000a900473ffffffffffffffffffffffffffffffffffffffff1673ffffffffffffffffffffffffffffffffffffffff1673ffffffffffffffffffffffffffffffffffffffff168152602001600782015481526020016008820154815260200160098201548152602001600a820154815250509050806060015173ffffffffffffffffffffffffffffffffffffffff163373ffffffffffffffffffffffffffffffffffffffff16146116f5576040517f08c379a00000000000000000000000000000000000000000000000000000000081526004016116ec90613e29565b60405180910390fd5b60008161010001511161173d576040517f08c379a000000000000000000000000000000000000000000000000000000000815260040161173490613e95565b60405180910390fd5b6000816101000151905060006008600085815260200190815260200160002060080181905550600360009054906101000a900473ffffffffffffffffffffffffffffffffffffffff1673ffffffffffffffffffffffffffffffffffffffff1663a9059cbb33836040518363ffffffff1660e01b81526004016117c0929190613eb5565b6020604051808303816000875af11580156117df573d6000803e3d6000fd5b505050506040513d601f19601f820116820180604052508101906118039190613f0a565b611842576040517f08c379a000000000000000000000000000000000000000000000000000000000815260040161183990613f83565b60405180910390fd5b823373ffffffffffffffffffffffffffffffffffffffff167f806bc37112176c187cccea4249aea74827b609b5e40d595301442638bfd57367836040516118899190613742565b60405180910390a3505050565b60006008600083815260200190815260200160002060405180610160016040529081600082015481526020016001820160009054906101000a900473ffffffffffffffffffffffffffffffffffffffff1673ffffffffffffffffffffffffffffffffffffffff1673ffffffffffffffffffffffffffffffffffffffff1681526020016002820160009054906101000a900473ffffffffffffffffffffffffffffffffffffffff1673ffffffffffffffffffffffffffffffffffffffff1673ffffffffffffffffffffffffffffffffffffffff1681526020016003820160009054906101000a900473ffffffffffffffffffffffffffffffffffffffff1673ffffffffffffffffffffffffffffffffffffffff1673ffffffffffffffffffffffffffffffffffffffff1681526020016004820160009054906101000a900473ffffffffffffffffffffffffffffffffffffffff1673ffffffffffffffffffffffffffffffffffffffff1673ffffffffffffffffffffffffffffffffffffffff168152602001600582015481526020016006820160009054906101000a900473ffffffffffffffffffffffffffffffffffffffff1673ffffffffffffffffffffffffffffffffffffffff1673ffffffffffffffffffffffffffffffffffffffff168152602001600782015481526020016008820154815260200160098201548152602001600a820154815250509050600073ffffffffffffffffffffffffffffffffffffffff16816040015173ffffffffffffffffffffffffffffffffffffffff1614611b16576040517f08c379a0000000000000000000000000000000000000000000000000000000008152600401611b0d90613fef565b60405180910390fd5b336008600084815260200190815260200160002060020160006101000a81548173ffffffffffffffffffffffffffffffffffffffff021916908373ffffffffffffffffffffffffffffffffffffffff16021790555060008160e001511115611b8757611b86828260e00151611bb8565b5b817f9e5a9ef273ea60ea90ac34dd0bd1bb373892ab14d6133df827ed7350406855ba60405160405180910390a25050565b60006008600084815260200190815260200160002060405180610160016040529081600082015481526020016001820160009054906101000a900473ffffffffffffffffffffffffffffffffffffffff1673ffffffffffffffffffffffffffffffffffffffff1673ffffffffffffffffffffffffffffffffffffffff1681526020016002820160009054906101000a900473ffffffffffffffffffffffffffffffffffffffff1673ffffffffffffffffffffffffffffffffffffffff1673ffffffffffffffffffffffffffffffffffffffff1681526020016003820160009054906101000a900473ffffffffffffffffffffffffffffffffffffffff1673ffffffffffffffffffffffffffffffffffffffff1673ffffffffffffffffffffffffffffffffffffffff1681526020016004820160009054906101000a900473ffffffffffffffffffffffffffffffffffffffff1673ffffffffffffffffffffffffffffffffffffffff1673ffffffffffffffffffffffffffffffffffffffff168152602001600582015481526020016006820160009054906101000a900473ffffffffffffffffffffffffffffffffffffffff1673ffffffffffffffffffffffffffffffffffffffff1673ffffffffffffffffffffffffffffffffffffffff168152602001600782015481526020016008820154815260200160098201548152602001600a820154815250509050600073ffffffffffffffffffffffffffffffffffffffff168160c0015173ffffffffffffffffffffffffffffffffffffffff1614611e38576040517f08c379a0000000000000000000000000000000000000000000000000000000008152600401611e2f9061405b565b60405180910390fd5b806020015173ffffffffffffffffffffffffffffffffffffffff163373ffffffffffffffffffffffffffffffffffffffff161480611ea55750806040015173ffffffffffffffffffffffffffffffffffffffff163373ffffffffffffffffffffffffffffffffffffffff16145b611ee4576040517f08c379a0000000000000000000000000000000000000000000000000000000008152600401611edb906140ed565b60405180910390fd5b600360009054906101000a900473ffffffffffffffffffffffffffffffffffffffff1673ffffffffffffffffffffffffffffffffffffffff166323b872dd3330856040518463ffffffff1660e01b8152600401611f439392919061410d565b6020604051808303816000875af1158015611f62573d6000803e3d6000fd5b505050506040513d601f19601f82011682018060405250810190611f869190613f0a565b611fc5576040517f08c379a0000000000000000000000000000000000000000000000000000000008152600401611fbc90614190565b60405180910390fd5b81600a600085815260200190815260200160002060003373ffffffffffffffffffffffffffffffffffffffff1673ffffffffffffffffffffffffffffffffffffffff168152602001908152602001600020600082825461202591906141b0565b925050819055508160086000858152602001908152602001600020600801600082825461205291906141b0565b92505081905550823373ffffffffffffffffffffffffffffffffffffffff167f1a771fe656018364a9369da21954bb3081cb08b0196c27e43ca59c7cae872737846040516120a09190613742565b60405180910390a3505050565b60006008600083815260200190815260200160002060405180610160016040529081600082015481526020016001820160009054906101000a900473ffffffffffffffffffffffffffffffffffffffff1673ffffffffffffffffffffffffffffffffffffffff1673ffffffffffffffffffffffffffffffffffffffff1681526020016002820160009054906101000a900473ffffffffffffffffffffffffffffffffffffffff1673ffffffffffffffffffffffffffffffffffffffff1673ffffffffffffffffffffffffffffffffffffffff1681526020016003820160009054906101000a900473ffffffffffffffffffffffffffffffffffffffff1673ffffffffffffffffffffffffffffffffffffffff1673ffffffffffffffffffffffffffffffffffffffff1681526020016004820160009054906101000a900473ffffffffffffffffffffffffffffffffffffffff1673ffffffffffffffffffffffffffffffffffffffff1673ffffffffffffffffffffffffffffffffffffffff168152602001600582015481526020016006820160009054906101000a900473ffffffffffffffffffffffffffffffffffffffff1673ffffffffffffffffffffffffffffffffffffffff1673ffffffffffffffffffffffffffffffffffffffff168152602001600782015481526020016008820154815260200160098201548152602001600a820154815250509050806020015173ffffffffffffffffffffffffffffffffffffffff163373ffffffffffffffffffffffffffffffffffffffff1614806123275750806040015173ffffffffffffffffffffffffffffffffffffffff163373ffffffffffffffffffffffffffffffffffffffff16145b612366576040517f08c379a000000000000000000000000000000000000000000000000000000000815260040161235d90614256565b60405180910390fd5b80610140015181610120015161237c9190614276565b4210156123be576040517f08c379a00000000000000000000000000000000000000000000000000000000081526004016123b5906142f6565b60405180910390fd5b806020015173ffffffffffffffffffffffffffffffffffffffff16816080015173ffffffffffffffffffffffffffffffffffffffff16036124575780604001516008600084815260200190815260200160002060030160006101000a81548173ffffffffffffffffffffffffffffffffffffffff021916908373ffffffffffffffffffffffffffffffffffffffff1602179055506124b1565b80602001516008600084815260200190815260200160002060030160006101000a81548173ffffffffffffffffffffffffffffffffffffffff021916908373ffffffffffffffffffffffffffffffffffffffff1602179055505b5050565b60007f000000000000000000000000000000000000000000000000000000000000000073ffffffffffffffffffffffffffffffffffffffff16639b1c385e6040518060c001604052807f000000000000000000000000000000000000000000000000000000000000000081526020017f00000000000000000000000000000000000000000000000000000000000000008152602001600361ffff168152602001620f424063ffffffff168152602001600163ffffffff16815260200161258b60405180602001604052806000151581525061324f565b8152506040518263ffffffff1660e01b81526004016125aa9190614489565b6020604051808303816000875af11580156125c9573d6000803e3d6000fd5b505050506040513d601f19601f820116820180604052508101906125ed91906144c0565b90506040518060600160405280600015158152602001600115158152602001600067ffffffffffffffff811115612627576126266144ed565b5b6040519080825280602002602001820160405280156126555781602001602082028036833780820191505090505b508152506007600083815260200190815260200160002060008201518160000160006101000a81548160ff02191690831515021790555060208201518160000160016101000a81548160ff02191690831515021790555060408201518160010190805190602001906126c89291906134a3565b5090505090565b60055481565b60006008600083815260200190815260200160002060405180610160016040529081600082015481526020016001820160009054906101000a900473ffffffffffffffffffffffffffffffffffffffff1673ffffffffffffffffffffffffffffffffffffffff1673ffffffffffffffffffffffffffffffffffffffff1681526020016002820160009054906101000a900473ffffffffffffffffffffffffffffffffffffffff1673ffffffffffffffffffffffffffffffffffffffff1673ffffffffffffffffffffffffffffffffffffffff1681526020016003820160009054906101000a900473ffffffffffffffffffffffffffffffffffffffff1673ffffffffffffffffffffffffffffffffffffffff1673ffffffffffffffffffffffffffffffffffffffff1681526020016004820160009054906101000a900473ffffffffffffffffffffffffffffffffffffffff1673ffffffffffffffffffffffffffffffffffffffff1673ffffffffffffffffffffffffffffffffffffffff168152602001600582015481526020016006820160009054906101000a900473ffffffffffffffffffffffffffffffffffffffff1673ffffffffffffffffffffffffffffffffffffffff1673ffffffffffffffffffffffffffffffffffffffff168152602001600782015481526020016008820154815260200160098201548152602001600a820154815250509050806020015173ffffffffffffffffffffffffffffffffffffffff163373ffffffffffffffffffffffffffffffffffffffff16148061294f5750806040015173ffffffffffffffffffffffffffffffffffffffff163373ffffffffffffffffffffffffffffffffffffffff16145b61298e576040517f08c379a000000000000000000000000000000000000000000000000000000000815260040161298590614256565b60405180910390fd5b600073ffffffffffffffffffffffffffffffffffffffff168160c0015173ffffffffffffffffffffffffffffffffffffffff1614612a01576040517f08c379a00000000000000000000000000000000000000000000000000000000081526004016129f890614568565b60405180910390fd5b8060e00151600860008481526020019081526020016000206008016000828254612a2b9190614276565b92505081905550600360009054906101000a900473ffffffffffffffffffffffffffffffffffffffff1673ffffffffffffffffffffffffffffffffffffffff1663a9059cbb338360e001516040518363ffffffff1660e01b8152600401612a93929190613eb5565b6020604051808303816000875af1158015612ab2573d6000803e3d6000fd5b505050506040513d601f19601f82011682018060405250810190612ad69190613f0a565b612b15576040517f08c379a0000000000000000000000000000000000000000000000000000000008152600401612b0c90613f83565b60405180910390fd5b5050565b612b216132e7565b612b2a81613377565b50565b60048181548110612b3d57600080fd5b906000526020600020016000915090505481565b6000806008600084815260200190815260200160002060405180610160016040529081600082015481526020016001820160009054906101000a900473ffffffffffffffffffffffffffffffffffffffff1673ffffffffffffffffffffffffffffffffffffffff1673ffffffffffffffffffffffffffffffffffffffff1681526020016002820160009054906101000a900473ffffffffffffffffffffffffffffffffffffffff1673ffffffffffffffffffffffffffffffffffffffff1673ffffffffffffffffffffffffffffffffffffffff1681526020016003820160009054906101000a900473ffffffffffffffffffffffffffffffffffffffff1673ffffffffffffffffffffffffffffffffffffffff1673ffffffffffffffffffffffffffffffffffffffff1681526020016004820160009054906101000a900473ffffffffffffffffffffffffffffffffffffffff1673ffffffffffffffffffffffffffffffffffffffff1673ffffffffffffffffffffffffffffffffffffffff168152602001600582015481526020016006820160009054906101000a900473ffffffffffffffffffffffffffffffffffffffff1673ffffffffffffffffffffffffffffffffffffffff1673ffffffffffffffffffffffffffffffffffffffff168152602001600782015481526020016008820154815260200160098201548152602001600a820154815250509050600073ffffffffffffffffffffffffffffffffffffffff16816020015173ffffffffffffffffffffffffffffffffffffffff1614158015612dd15750600073ffffffffffffffffffffffffffffffffffffffff16816040015173ffffffffffffffffffffffffffffffffffffffff1614155b612e10576040517f08c379a0000000000000000000000000000000000000000000000000000000008152600401612e07906145fa565b60405180910390fd5b600073ffffffffffffffffffffffffffffffffffffffff16816060015173ffffffffffffffffffffffffffffffffffffffff1614612e83576040517f08c379a0000000000000000000000000000000000000000000000000000000008152600401612e7a90613ba8565b60405180910390fd5b806080015173ffffffffffffffffffffffffffffffffffffffff163373ffffffffffffffffffffffffffffffffffffffff1614612ef5576040517f08c379a0000000000000000000000000000000000000000000000000000000008152600401612eec90614666565b60405180910390fd5b8060c0015173ffffffffffffffffffffffffffffffffffffffff163373ffffffffffffffffffffffffffffffffffffffff1603612f67576040517f08c379a0000000000000000000000000000000000000000000000000000000008152600401612f5e906146f8565b60405180910390fd5b600a60008481526020019081526020016000206000826040015173ffffffffffffffffffffffffffffffffffffffff1673ffffffffffffffffffffffffffffffffffffffff16815260200190815260200160002054600a60008581526020019081526020016000206000836020015173ffffffffffffffffffffffffffffffffffffffff1673ffffffffffffffffffffffffffffffffffffffff1681526020019081526020016000205414613051576040517f08c379a00000000000000000000000000000000000000000000000000000000081526004016130489061478a565b60405180910390fd5b6130596124b5565b9150336008600085815260200190815260200160002060060160006101000a81548173ffffffffffffffffffffffffffffffffffffffff021916908373ffffffffffffffffffffffffffffffffffffffff16021790555042600860008581526020019081526020016000206009018190555081600b600085815260200190815260200160002060003373ffffffffffffffffffffffffffffffffffffffff1673ffffffffffffffffffffffffffffffffffffffff16815260200190815260200160002081905550817f0c27e43af6588b65dccc4465720ef720b7cf45f5fba352df8607ae1cfea9089b336040516131509190613830565b60405180910390a2827f1b2d2c8dcf3122076398bf0628bedac49d99e3961ab4f43d2fef061784bff15b336040516131889190613830565b60405180910390a250919050565b600b602052816000526040600020602052806000526040600020600091509150505481565b60016007600085815260200190815260200160002060000160006101000a81548160ff021916908315150217905550818160076000868152602001908152602001600020600101919061320f9291906134f0565b50827ffe2e2d779dba245964d4e3ef9b994be63856fd568bf7d3ca9e224755cb1bd54d8383604051613242929190614825565b60405180910390a2505050565b60607f92fd13387c7fe7befbc38d303d6468778fb9731bc4583f17d92989c6fcfdeaaa826040516024016132839190614874565b604051602081830303815290604052907bffffffffffffffffffffffffffffffffffffffffffffffffffffffff19166020820180517bffffffffffffffffffffffffffffffffffffffffffffffffffffffff83818316178352505050509050919050565b60008054906101000a900473ffffffffffffffffffffffffffffffffffffffff1673ffffffffffffffffffffffffffffffffffffffff163373ffffffffffffffffffffffffffffffffffffffff1614613375576040517f08c379a000000000000000000000000000000000000000000000000000000000815260040161336c906148db565b60405180910390fd5b565b3373ffffffffffffffffffffffffffffffffffffffff168173ffffffffffffffffffffffffffffffffffffffff16036133e5576040517f08c379a00000000000000000000000000000000000000000000000000000000081526004016133dc90614947565b60405180910390fd5b80600160006101000a81548173ffffffffffffffffffffffffffffffffffffffff021916908373ffffffffffffffffffffffffffffffffffffffff1602179055508073ffffffffffffffffffffffffffffffffffffffff1660008054906101000a900473ffffffffffffffffffffffffffffffffffffffff1673ffffffffffffffffffffffffffffffffffffffff167fed8889f560326eb138920d842192f0eb3dd22b4f139c87a2c57538e05bae127860405160405180910390a350565b8280548282559060005260206000209081019282156134df579160200282015b828111156134de5782518255916020019190600101906134c3565b5b5090506134ec919061353d565b5090565b82805482825590600052602060002090810192821561352c579160200282015b8281111561352b578235825591602001919060010190613510565b5b509050613539919061353d565b5090565b5b8082111561355657600081600090555060010161353e565b5090565b600080fd5b600080fd5b6000819050919050565b61357781613564565b811461358257600080fd5b50565b6000813590506135948161356e565b92915050565b600080fd5b600080fd5b600080fd5b60008083601f8401126135bf576135be61359a565b5b8235905067ffffffffffffffff8111156135dc576135db61359f565b5b6020830191508360208202830111156135f8576135f76135a4565b5b9250929050565b6000806000604084860312156136185761361761355a565b5b600061362686828701613585565b935050602084013567ffffffffffffffff8111156136475761364661355f565b5b613653868287016135a9565b92509250509250925092565b6000819050919050565b6136728161365f565b811461367d57600080fd5b50565b60008135905061368f81613669565b92915050565b600073ffffffffffffffffffffffffffffffffffffffff82169050919050565b60006136c082613695565b9050919050565b6136d0816136b5565b81146136db57600080fd5b50565b6000813590506136ed816136c7565b92915050565b6000806040838503121561370a5761370961355a565b5b600061371885828601613680565b9250506020613729858286016136de565b9150509250929050565b61373c81613564565b82525050565b60006020820190506137576000830184613733565b92915050565b600080604083850312156137745761377361355a565b5b600061378285828601613585565b925050602061379385828601613585565b9150509250929050565b6137a68161365f565b82525050565b60006020820190506137c1600083018461379d565b92915050565b6000602082840312156137dd576137dc61355a565b5b60006137eb84828501613680565b91505092915050565b60006020828403121561380a5761380961355a565b5b600061381884828501613585565b91505092915050565b61382a816136b5565b82525050565b60006020820190506138456000830184613821565b92915050565b6000602082840312156138615761386061355a565b5b600061386f848285016136de565b91505092915050565b60006101608201905061388e600083018e61379d565b61389b602083018d613821565b6138a8604083018c613821565b6138b5606083018b613821565b6138c2608083018a613821565b6138cf60a0830189613733565b6138dc60c0830188613821565b6138e960e0830187613733565b6138f7610100830186613733565b613905610120830185613733565b613913610140830184613733565b9c9b505050505050505050505050565b6000819050919050565b600061394861394361393e84613695565b613923565b613695565b9050919050565b600061395a8261392d565b9050919050565b600061396c8261394f565b9050919050565b61397c81613961565b82525050565b60006020820190506139976000830184613973565b92915050565b60008115159050919050565b6139b28161399d565b82525050565b60006040820190506139cd60008301856139a9565b6139da60208301846139a9565b9392505050565b600080604083850312156139f8576139f761355a565b5b6000613a0685828601613680565b9250506020613a1785828601613585565b9150509250929050565b6000604082019050613a366000830185613821565b613a436020830184613821565b9392505050565b6000819050919050565b613a65613a6082613564565b613a4a565b82525050565b60008160601b9050919050565b6000613a8382613a6b565b9050919050565b6000613a9582613a78565b9050919050565b613aad613aa8826136b5565b613a8a565b82525050565b6000613abf8285613a54565b602082019150613acf8284613a9c565b6014820191508190509392505050565b600082825260208201905092915050565b7f6e6f7420796f7572207475726e20746f20666972652100000000000000000000600082015250565b6000613b26601683613adf565b9150613b3182613af0565b602082019050919050565b60006020820190508181036000830152613b5581613b19565b9050919050565b7f67616d65206f7665722100000000000000000000000000000000000000000000600082015250565b6000613b92600a83613adf565b9150613b9d82613b5c565b602082019050919050565b60006020820190508181036000830152613bc181613b85565b9050919050565b7f5652462072657175657374206e6f742066756c66696c6c656421000000000000600082015250565b6000613bfe601a83613adf565b9150613c0982613bc8565b602082019050919050565b60006020820190508181036000830152613c2d81613bf1565b9050919050565b7f4e487b7100000000000000000000000000000000000000000000000000000000600052603260045260246000fd5b7f4e487b7100000000000000000000000000000000000000000000000000000000600052601260045260246000fd5b6000613c9d82613564565b9150613ca883613564565b925082613cb857613cb7613c63565b5b828206905092915050565b7f4e487b7100000000000000000000000000000000000000000000000000000000600052601160045260246000fd5b6000613cfd82613564565b91507fffffffffffffffffffffffffffffffffffffffffffffffffffffffffffffffff8203613d2f57613d2e613cc3565b5b600182019050919050565b7f4d7573742062652070726f706f736564206f776e657200000000000000000000600082015250565b6000613d70601683613adf565b9150613d7b82613d3a565b602082019050919050565b60006020820190508181036000830152613d9f81613d63565b9050919050565b6000606082019050613dbb6000830186613821565b613dc86020830185613821565b613dd56040830184613821565b949350505050565b7f6f6e6c79207468652077696e6e65722063616e20776974686472617721000000600082015250565b6000613e13601d83613adf565b9150613e1e82613ddd565b602082019050919050565b60006020820190508181036000830152613e4281613e06565b9050919050565b7f6e6f2062616c616e636520746f20776974686472617721000000000000000000600082015250565b6000613e7f601783613adf565b9150613e8a82613e49565b602082019050919050565b60006020820190508181036000830152613eae81613e72565b9050919050565b6000604082019050613eca6000830185613821565b613ed76020830184613733565b9392505050565b613ee78161399d565b8114613ef257600080fd5b50565b600081519050613f0481613ede565b92915050565b600060208284031215613f2057613f1f61355a565b5b6000613f2e84828501613ef5565b91505092915050565b7f7769746864726177206661696c65642100000000000000000000000000000000600082015250565b6000613f6d601083613adf565b9150613f7882613f37565b602082019050919050565b60006020820190508181036000830152613f9c81613f60565b9050919050565b7f67616d652073657373696f6e2069732066756c6c210000000000000000000000600082015250565b6000613fd9601583613adf565b9150613fe482613fa3565b602082019050919050565b6000602082019050818103600083015261400881613fcc565b9050919050565b7f67616d6520616c72656164792073746172746564210000000000000000000000600082015250565b6000614045601583613adf565b91506140508261400f565b602082019050919050565b6000602082019050818103600083015261407481614038565b9050919050565b7f796f75277265206e6f742061207061727469636970616e74206f66207468697360008201527f2067616d65210000000000000000000000000000000000000000000000000000602082015250565b60006140d7602683613adf565b91506140e28261407b565b604082019050919050565b60006020820190508181036000830152614106816140ca565b9050919050565b60006060820190506141226000830186613821565b61412f6020830185613821565b61413c6040830184613733565b949350505050565b7f6465706f736974206661696c6564210000000000000000000000000000000000600082015250565b600061417a600f83613adf565b915061418582614144565b602082019050919050565b600060208201905081810360008301526141a98161416d565b9050919050565b60006141bb82613564565b91506141c683613564565b92508282019050808211156141de576141dd613cc3565b5b92915050565b7f796f75277265206e6f74206120706c6179657220696e20746869732067616d6560008201527f2100000000000000000000000000000000000000000000000000000000000000602082015250565b6000614240602183613adf565b915061424b826141e4565b604082019050919050565b6000602082019050818103600083015261426f81614233565b9050919050565b600061428182613564565b915061428c83613564565b92508282039050818111156142a4576142a3613cc3565b5b92915050565b7f7374696c6c2077697468696e207475726e2074696d6572000000000000000000600082015250565b60006142e0601783613adf565b91506142eb826142aa565b602082019050919050565b6000602082019050818103600083015261430f816142d3565b9050919050565b61431f8161365f565b82525050565b61432e81613564565b82525050565b600061ffff82169050919050565b61434b81614334565b82525050565b600063ffffffff82169050919050565b61436a81614351565b82525050565b600081519050919050565b600082825260208201905092915050565b60005b838110156143aa57808201518184015260208101905061438f565b60008484015250505050565b6000601f19601f8301169050919050565b60006143d282614370565b6143dc818561437b565b93506143ec81856020860161438c565b6143f5816143b6565b840191505092915050565b600060c0830160008301516144186000860182614316565b50602083015161442b6020860182614325565b50604083015161443e6040860182614342565b5060608301516144516060860182614361565b5060808301516144646080860182614361565b5060a083015184820360a086015261447c82826143c7565b9150508091505092915050565b600060208201905081810360008301526144a38184614400565b905092915050565b6000815190506144ba8161356e565b92915050565b6000602082840312156144d6576144d561355a565b5b60006144e4848285016144ab565b91505092915050565b7f4e487b7100000000000000000000000000000000000000000000000000000000600052604160045260246000fd5b7f67616d6520686173207374617274656421000000000000000000000000000000600082015250565b6000614552601183613adf565b915061455d8261451c565b602082019050919050565b6000602082019050818103600083015261458181614545565b9050919050565b7f73657373696f6e20646f6573206e6f7420686176652074776f20706c6179657260008201527f7321000000000000000000000000000000000000000000000000000000000000602082015250565b60006145e4602283613adf565b91506145ef82614588565b604082019050919050565b60006020820190508181036000830152614613816145d7565b9050919050565b7f6e6f7420796f7572207475726e21000000000000000000000000000000000000600082015250565b6000614650600e83613adf565b915061465b8261461a565b602082019050919050565b6000602082019050818103600083015261467f81614643565b9050919050565b7f796f7527766520616c7265616479207370756e207468652063796c696e64657260008201527f2100000000000000000000000000000000000000000000000000000000000000602082015250565b60006146e2602183613adf565b91506146ed82614686565b604082019050919050565b60006020820190508181036000830152614711816146d5565b9050919050565b7f776167657273206d757374206265206f66206571756976616c656e742076616c60008201527f7565210000000000000000000000000000000000000000000000000000000000602082015250565b6000614774602383613adf565b915061477f82614718565b604082019050919050565b600060208201905081810360008301526147a381614767565b9050919050565b600082825260208201905092915050565b600080fd5b82818337505050565b60006147d583856147aa565b93507f07ffffffffffffffffffffffffffffffffffffffffffffffffffffffffffffff831115614808576148076147bb565b5b6020830292506148198385846147c0565b82840190509392505050565b600060208201905081810360008301526148408184866147c9565b90509392505050565b6148528161399d565b82525050565b60208201600082015161486e6000850182614849565b50505050565b60006020820190506148896000830184614858565b92915050565b7f4f6e6c792063616c6c61626c65206279206f776e657200000000000000000000600082015250565b60006148c5601683613adf565b91506148d08261488f565b602082019050919050565b600060208201905081810360008301526148f4816148b8565b9050919050565b7f43616e6e6f74207472616e7366657220746f2073656c66000000000000000000600082015250565b6000614931601783613adf565b915061493c826148fb565b602082019050919050565b6000602082019050818103600083015261496081614924565b905091905056fea2646970667358221220d61998755e8c9fa8103a961e848f56d57b1303d93e6ad7788bfbd811bf569d9764736f6c63430008140033",
  "linkReferences": {},
  "deployedLinkReferences": {}
}